{
  "contractName": "Dao",
  "abi": [
    {
      "inputs": [],
      "stateMutability": "nonpayable",
      "type": "constructor"
    },
    {
      "inputs": [],
      "name": "GovernanceToken",
      "outputs": [
        {
          "internalType": "contract Itoken",
          "name": "",
          "type": "address"
        }
      ],
      "stateMutability": "view",
      "type": "function"
    },
    {
      "inputs": [],
      "name": "OWNER",
      "outputs": [
        {
          "internalType": "address",
          "name": "",
          "type": "address"
        }
      ],
      "stateMutability": "view",
      "type": "function"
    },
    {
      "inputs": [
        {
          "internalType": "address",
          "name": "",
          "type": "address"
        }
      ],
      "name": "_balances",
      "outputs": [
        {
          "internalType": "uint256",
          "name": "",
          "type": "uint256"
        }
      ],
      "stateMutability": "view",
      "type": "function"
    },
    {
      "inputs": [
        {
          "internalType": "uint256",
          "name": "",
          "type": "uint256"
        }
      ],
      "name": "allMembers",
      "outputs": [
        {
          "internalType": "address",
          "name": "publicAddress",
          "type": "address"
        },
        {
          "internalType": "uint256",
          "name": "score",
          "type": "uint256"
        },
        {
          "internalType": "bool",
          "name": "active",
          "type": "bool"
        }
      ],
      "stateMutability": "view",
      "type": "function"
    },
    {
      "inputs": [
        {
          "internalType": "address",
          "name": "",
          "type": "address"
        }
      ],
      "name": "blacklisted",
      "outputs": [
        {
          "internalType": "bool",
          "name": "",
          "type": "bool"
        }
      ],
      "stateMutability": "view",
      "type": "function"
    },
    {
      "inputs": [
        {
          "internalType": "address",
          "name": "",
          "type": "address"
        }
      ],
      "name": "candidancyProposals",
      "outputs": [
        {
          "internalType": "address",
          "name": "candidate",
          "type": "address"
        },
        {
          "internalType": "uint256",
          "name": "forVotes",
          "type": "uint256"
        },
        {
          "internalType": "uint256",
          "name": "againstVotes",
          "type": "uint256"
        }
      ],
      "stateMutability": "view",
      "type": "function"
    },
    {
      "inputs": [
        {
          "internalType": "address",
          "name": "",
          "type": "address"
        }
      ],
      "name": "members",
      "outputs": [
        {
          "internalType": "address",
          "name": "publicAddress",
          "type": "address"
        },
        {
          "internalType": "uint256",
          "name": "score",
          "type": "uint256"
        },
        {
          "internalType": "bool",
          "name": "active",
          "type": "bool"
        }
      ],
      "stateMutability": "view",
      "type": "function"
    },
    {
      "inputs": [],
      "name": "proposalsCreated",
      "outputs": [
        {
          "internalType": "uint256",
          "name": "",
          "type": "uint256"
        }
      ],
      "stateMutability": "view",
      "type": "function"
    },
    {
      "inputs": [],
      "name": "treasureWallet",
      "outputs": [
        {
          "internalType": "address",
          "name": "",
          "type": "address"
        }
      ],
      "stateMutability": "view",
      "type": "function"
    },
    {
      "inputs": [
        {
          "internalType": "address",
          "name": "user",
          "type": "address"
        }
      ],
      "name": "signAsSponsor",
      "outputs": [],
      "stateMutability": "nonpayable",
      "type": "function"
    },
    {
      "inputs": [
        {
          "internalType": "address",
          "name": "user",
          "type": "address"
        }
      ],
      "name": "getSponsorsOfProposal",
      "outputs": [
        {
          "internalType": "address[]",
          "name": "",
          "type": "address[]"
        }
      ],
      "stateMutability": "view",
      "type": "function"
    },
    {
      "inputs": [],
      "name": "getairdrop",
      "outputs": [],
      "stateMutability": "nonpayable",
      "type": "function"
    },
    {
      "inputs": [
        {
          "internalType": "address",
          "name": "user",
          "type": "address"
        }
      ],
      "name": "calculateResult",
      "outputs": [
        {
          "internalType": "bool",
          "name": "",
          "type": "bool"
        }
      ],
      "stateMutability": "nonpayable",
      "type": "function"
    },
    {
      "inputs": [
        {
          "internalType": "bool",
          "name": "vote",
          "type": "bool"
        },
        {
          "internalType": "address",
          "name": "user",
          "type": "address"
        }
      ],
      "name": "voteToCandidancyProposal",
      "outputs": [],
      "stateMutability": "nonpayable",
      "type": "function"
    },
    {
      "inputs": [],
      "name": "saveCandidancyProposal",
      "outputs": [],
      "stateMutability": "nonpayable",
      "type": "function"
    },
    {
      "inputs": [
        {
          "internalType": "address",
          "name": "user",
          "type": "address"
        }
      ],
      "name": "trasferOwnership",
      "outputs": [],
      "stateMutability": "nonpayable",
      "type": "function"
    },
    {
      "inputs": [
        {
          "internalType": "uint256",
          "name": "score",
          "type": "uint256"
        }
      ],
      "name": "setScore",
      "outputs": [],
      "stateMutability": "nonpayable",
      "type": "function"
    },
    {
      "inputs": [
        {
          "internalType": "contract Itoken",
          "name": "token",
          "type": "address"
        }
      ],
      "name": "withdrawlostfunds",
      "outputs": [],
      "stateMutability": "nonpayable",
      "type": "function"
    },
    {
      "inputs": [
        {
          "internalType": "address",
          "name": "user",
          "type": "address"
        }
      ],
      "name": "cliamable",
      "outputs": [
        {
          "internalType": "uint256",
          "name": "amount",
          "type": "uint256"
        }
      ],
      "stateMutability": "view",
      "type": "function"
    }
  ],
  "bytecode": "0x60806040526001600255600060095534801561001a57600080fd5b5060003390507301be23585060835e02b77ef475b0cc51aa1e0709600160006101000a81548173ffffffffffffffffffffffffffffffffffffffff021916908373ffffffffffffffffffffffffffffffffffffffff16021790555080600560008373ffffffffffffffffffffffffffffffffffffffff1673ffffffffffffffffffffffffffffffffffffffff16815260200190815260200160002060000160006101000a81548173ffffffffffffffffffffffffffffffffffffffff021916908373ffffffffffffffffffffffffffffffffffffffff1602179055506001600560008373ffffffffffffffffffffffffffffffffffffffff1673ffffffffffffffffffffffffffffffffffffffff168152602001908152602001600020600101819055506001600560008373ffffffffffffffffffffffffffffffffffffffff1673ffffffffffffffffffffffffffffffffffffffff16815260200190815260200160002060020160006101000a81548160ff02191690831515021790555080600360006101000a81548173ffffffffffffffffffffffffffffffffffffffff021916908373ffffffffffffffffffffffffffffffffffffffff1602179055506000600560008373ffffffffffffffffffffffffffffffffffffffff1673ffffffffffffffffffffffffffffffffffffffff16815260200190815260200160002090806001815401808255809150506001900390600052602060002090600302016000909190919091506000820160009054906101000a900473ffffffffffffffffffffffffffffffffffffffff168160000160006101000a81548173ffffffffffffffffffffffffffffffffffffffff021916908373ffffffffffffffffffffffffffffffffffffffff160217905550600182015481600101556002820160009054906101000a900460ff168160020160006101000a81548160ff021916908315150217905550505033600460006101000a81548173ffffffffffffffffffffffffffffffffffffffff021916908373ffffffffffffffffffffffffffffffffffffffff16021790555050612c66806103356000396000f3fe608060405234801561001057600080fd5b50600436106101215760003560e01c8063824a997b116100ad578063dbac26e911610071578063dbac26e91461031e578063de798e1c1461034e578063ebd85ad71461036c578063efdb485314610376578063fd0717bd1461039257610121565b8063824a997b14610268578063a299d35514610284578063b587a9a5146102a0578063c514cdf9146102d0578063d824c93e146102ee57610121565b806337300ef4116100f457806337300ef4146101c4578063422beeba146101f65780635df95caa146102125780636be6c88f1461021c5780636ebcf6071461023857610121565b806308ae4b0c146101265780630bf6f83014610158578063117803e31461018857806329d86c99146101a6575b600080fd5b610140600480360381019061013b919061211c565b6103c4565b60405161014f9392919061218c565b60405180910390f35b610172600480360381019061016d919061211c565b61041b565b60405161017f9190612281565b60405180910390f35b6101906104eb565b60405161019d91906122a3565b60405180910390f35b6101ae610511565b6040516101bb91906122be565b60405180910390f35b6101de60048036038101906101d9919061211c565b610517565b6040516101ed939291906122d9565b60405180910390f35b610210600480360381019061020b919061233c565b610561565b005b61021a6105fb565b005b6102366004803603810190610231919061211c565b6107b3565b005b610252600480360381019061024d919061211c565b610bce565b60405161025f91906122be565b60405180910390f35b610282600480360381019061027d9190612395565b610be6565b005b61029e60048036038101906102999190612413565b6111b0565b005b6102ba60048036038101906102b5919061211c565b61133b565b6040516102c791906122be565b60405180910390f35b6102d8611464565b6040516102e5919061249f565b60405180910390f35b6103086004803603810190610303919061211c565b61148a565b60405161031591906124ba565b60405180910390f35b6103386004803603810190610333919061211c565b611bb2565b60405161034591906124ba565b60405180910390f35b610356611bd2565b60405161036391906122a3565b60405180910390f35b610374611bf8565b005b610390600480360381019061038b919061211c565b611c03565b005b6103ac60048036038101906103a7919061233c565b611d41565b6040516103bb9392919061218c565b60405180910390f35b60056020528060005260406000206000915090508060000160009054906101000a900473ffffffffffffffffffffffffffffffffffffffff16908060010154908060020160009054906101000a900460ff16905083565b6060600760008373ffffffffffffffffffffffffffffffffffffffff1673ffffffffffffffffffffffffffffffffffffffff1681526020019081526020016000206003018054806020026020016040519081016040528092919081815260200182805480156104df57602002820191906000526020600020905b8160009054906101000a900473ffffffffffffffffffffffffffffffffffffffff1673ffffffffffffffffffffffffffffffffffffffff1681526020019060010190808311610495575b50505050509050919050565b600360009054906101000a900473ffffffffffffffffffffffffffffffffffffffff1681565b60095481565b60076020528060005260406000206000915090508060000160009054906101000a900473ffffffffffffffffffffffffffffffffffffffff16908060010154908060020154905083565b600360009054906101000a900473ffffffffffffffffffffffffffffffffffffffff1673ffffffffffffffffffffffffffffffffffffffff163373ffffffffffffffffffffffffffffffffffffffff16146105f1576040517f08c379a00000000000000000000000000000000000000000000000000000000081526004016105e890612558565b60405180910390fd5b8060028190555050565b600860003373ffffffffffffffffffffffffffffffffffffffff1673ffffffffffffffffffffffffffffffffffffffff16815260200190815260200160002060009054906101000a900460ff1615610688576040517f08c379a000000000000000000000000000000000000000000000000000000000815260040161067f906125c4565b60405180910390fd5b33600760003373ffffffffffffffffffffffffffffffffffffffff1673ffffffffffffffffffffffffffffffffffffffff16815260200190815260200160002060000160006101000a81548173ffffffffffffffffffffffffffffffffffffffff021916908373ffffffffffffffffffffffffffffffffffffffff1602179055506000600760003373ffffffffffffffffffffffffffffffffffffffff1673ffffffffffffffffffffffffffffffffffffffff168152602001908152602001600020600101819055506000600760003373ffffffffffffffffffffffffffffffffffffffff1673ffffffffffffffffffffffffffffffffffffffff16815260200190815260200160002060020181905550600960008154809291906107ac90612613565b9190505550565b600360009054906101000a900473ffffffffffffffffffffffffffffffffffffffff1673ffffffffffffffffffffffffffffffffffffffff163373ffffffffffffffffffffffffffffffffffffffff1614610843576040517f08c379a000000000000000000000000000000000000000000000000000000000815260040161083a90612558565b60405180910390fd5b600073ffffffffffffffffffffffffffffffffffffffff168173ffffffffffffffffffffffffffffffffffffffff16036108b2576040517f08c379a00000000000000000000000000000000000000000000000000000000081526004016108a9906126a7565b60405180910390fd5b80600360006101000a81548173ffffffffffffffffffffffffffffffffffffffff021916908373ffffffffffffffffffffffffffffffffffffffff160217905550600360009054906101000a900473ffffffffffffffffffffffffffffffffffffffff1660056000600360009054906101000a900473ffffffffffffffffffffffffffffffffffffffff1673ffffffffffffffffffffffffffffffffffffffff1673ffffffffffffffffffffffffffffffffffffffff16815260200190815260200160002060000160006101000a81548173ffffffffffffffffffffffffffffffffffffffff021916908373ffffffffffffffffffffffffffffffffffffffff160217905550600060056000600360009054906101000a900473ffffffffffffffffffffffffffffffffffffffff1673ffffffffffffffffffffffffffffffffffffffff1673ffffffffffffffffffffffffffffffffffffffff16815260200190815260200160002060010181905550600160056000600360009054906101000a900473ffffffffffffffffffffffffffffffffffffffff1673ffffffffffffffffffffffffffffffffffffffff1673ffffffffffffffffffffffffffffffffffffffff16815260200190815260200160002060020160006101000a81548160ff021916908315150217905550600060056000600360009054906101000a900473ffffffffffffffffffffffffffffffffffffffff1673ffffffffffffffffffffffffffffffffffffffff1673ffffffffffffffffffffffffffffffffffffffff16815260200190815260200160002090806001815401808255809150506001900390600052602060002090600302016000909190919091506000820160009054906101000a900473ffffffffffffffffffffffffffffffffffffffff168160000160006101000a81548173ffffffffffffffffffffffffffffffffffffffff021916908373ffffffffffffffffffffffffffffffffffffffff160217905550600182015481600101556002820160009054906101000a900460ff168160020160006101000a81548160ff021916908315150217905550505050565b60066020528060005260406000206000915090505481565b600560003373ffffffffffffffffffffffffffffffffffffffff1673ffffffffffffffffffffffffffffffffffffffff16815260200190815260200160002060020160009054906101000a900460ff16610c75576040517f08c379a0000000000000000000000000000000000000000000000000000000008152600401610c6c90612713565b60405180910390fd5b600860008273ffffffffffffffffffffffffffffffffffffffff1673ffffffffffffffffffffffffffffffffffffffff16815260200190815260200160002060009054906101000a900460ff1615610d02576040517f08c379a0000000000000000000000000000000000000000000000000000000008152600401610cf9906125c4565b60405180910390fd5b600560008273ffffffffffffffffffffffffffffffffffffffff1673ffffffffffffffffffffffffffffffffffffffff16815260200190815260200160002060020160009054906101000a900460ff1615610d92576040517f08c379a0000000000000000000000000000000000000000000000000000000008152600401610d899061277f565b60405180910390fd5b3373ffffffffffffffffffffffffffffffffffffffff16600760008373ffffffffffffffffffffffffffffffffffffffff1673ffffffffffffffffffffffffffffffffffffffff16815260200190815260200160002060000160009054906101000a900473ffffffffffffffffffffffffffffffffffffffff1673ffffffffffffffffffffffffffffffffffffffff1603610e62576040517f08c379a0000000000000000000000000000000000000000000000000000000008152600401610e59906127eb565b60405180910390fd5b600760008273ffffffffffffffffffffffffffffffffffffffff1673ffffffffffffffffffffffffffffffffffffffff16815260200190815260200160002060050160003373ffffffffffffffffffffffffffffffffffffffff1673ffffffffffffffffffffffffffffffffffffffff16815260200190815260200160002060009054906101000a900460ff1615610f2f576040517f08c379a0000000000000000000000000000000000000000000000000000000008152600401610f2690612857565b60405180910390fd5b8115610fd557600560003373ffffffffffffffffffffffffffffffffffffffff1673ffffffffffffffffffffffffffffffffffffffff16815260200190815260200160002060010154600760008373ffffffffffffffffffffffffffffffffffffffff1673ffffffffffffffffffffffffffffffffffffffff1681526020019081526020016000206001016000828254610fc99190612877565b92505081905550611071565b600560003373ffffffffffffffffffffffffffffffffffffffff1673ffffffffffffffffffffffffffffffffffffffff16815260200190815260200160002060010154600760008373ffffffffffffffffffffffffffffffffffffffff1673ffffffffffffffffffffffffffffffffffffffff16815260200190815260200160002060020160008282546110699190612877565b925050819055505b600760008273ffffffffffffffffffffffffffffffffffffffff1673ffffffffffffffffffffffffffffffffffffffff168152602001908152602001600020600401339080600181540180825580915050600190039060005260206000200160009091909190916101000a81548173ffffffffffffffffffffffffffffffffffffffff021916908373ffffffffffffffffffffffffffffffffffffffff1602179055506001600760008373ffffffffffffffffffffffffffffffffffffffff1673ffffffffffffffffffffffffffffffffffffffff16815260200190815260200160002060050160003373ffffffffffffffffffffffffffffffffffffffff1673ffffffffffffffffffffffffffffffffffffffff16815260200190815260200160002060006101000a81548160ff0219169083151502179055505050565b600360009054906101000a900473ffffffffffffffffffffffffffffffffffffffff1673ffffffffffffffffffffffffffffffffffffffff163373ffffffffffffffffffffffffffffffffffffffff1614611240576040517f08c379a000000000000000000000000000000000000000000000000000000000815260040161123790612558565b60405180910390fd5b8073ffffffffffffffffffffffffffffffffffffffff1663a9059cbb338373ffffffffffffffffffffffffffffffffffffffff166370a08231306040518263ffffffff1660e01b815260040161129691906122a3565b602060405180830381865afa1580156112b3573d6000803e3d6000fd5b505050506040513d601f19601f820116820180604052508101906112d791906128c0565b6040518363ffffffff1660e01b81526004016112f49291906128ed565b6020604051808303816000875af1158015611313573d6000803e3d6000fd5b505050506040513d601f19601f82011682018060405250810190611337919061292b565b5050565b6000600560008373ffffffffffffffffffffffffffffffffffffffff1673ffffffffffffffffffffffffffffffffffffffff16815260200190815260200160002060010154600660008473ffffffffffffffffffffffffffffffffffffffff1673ffffffffffffffffffffffffffffffffffffffff16815260200190815260200160002054101561145a57600660008373ffffffffffffffffffffffffffffffffffffffff1673ffffffffffffffffffffffffffffffffffffffff16815260200190815260200160002054600560008473ffffffffffffffffffffffffffffffffffffffff1673ffffffffffffffffffffffffffffffffffffffff168152602001908152602001600020600101546114539190612958565b905061145f565b600090505b919050565b600160009054906101000a900473ffffffffffffffffffffffffffffffffffffffff1681565b6000600360009054906101000a900473ffffffffffffffffffffffffffffffffffffffff1673ffffffffffffffffffffffffffffffffffffffff163373ffffffffffffffffffffffffffffffffffffffff161461151c576040517f08c379a000000000000000000000000000000000000000000000000000000000815260040161151390612558565b60405180910390fd5b6000600760008473ffffffffffffffffffffffffffffffffffffffff1673ffffffffffffffffffffffffffffffffffffffff1681526020019081526020016000206001015490506000600760008573ffffffffffffffffffffffffffffffffffffffff1673ffffffffffffffffffffffffffffffffffffffff168152602001908152602001600020600201549050808211156119af57600760008573ffffffffffffffffffffffffffffffffffffffff1673ffffffffffffffffffffffffffffffffffffffff16815260200190815260200160002060000160009054906101000a900473ffffffffffffffffffffffffffffffffffffffff1660056000600760008873ffffffffffffffffffffffffffffffffffffffff1673ffffffffffffffffffffffffffffffffffffffff16815260200190815260200160002060000160009054906101000a900473ffffffffffffffffffffffffffffffffffffffff1673ffffffffffffffffffffffffffffffffffffffff1673ffffffffffffffffffffffffffffffffffffffff16815260200190815260200160002060000160006101000a81548173ffffffffffffffffffffffffffffffffffffffff021916908373ffffffffffffffffffffffffffffffffffffffff160217905550600060056000600760008873ffffffffffffffffffffffffffffffffffffffff1673ffffffffffffffffffffffffffffffffffffffff16815260200190815260200160002060000160009054906101000a900473ffffffffffffffffffffffffffffffffffffffff1673ffffffffffffffffffffffffffffffffffffffff1673ffffffffffffffffffffffffffffffffffffffff16815260200190815260200160002060010181905550600160056000600760008873ffffffffffffffffffffffffffffffffffffffff1673ffffffffffffffffffffffffffffffffffffffff16815260200190815260200160002060000160009054906101000a900473ffffffffffffffffffffffffffffffffffffffff1673ffffffffffffffffffffffffffffffffffffffff1673ffffffffffffffffffffffffffffffffffffffff16815260200190815260200160002060020160006101000a81548160ff02191690831515021790555060005b600760008673ffffffffffffffffffffffffffffffffffffffff1673ffffffffffffffffffffffffffffffffffffffff1681526020019081526020016000206003018054905081101561199a5760025460056000600760008973ffffffffffffffffffffffffffffffffffffffff1673ffffffffffffffffffffffffffffffffffffffff16815260200190815260200160002060030184815481106119095761190861298c565b5b9060005260206000200160009054906101000a900473ffffffffffffffffffffffffffffffffffffffff1673ffffffffffffffffffffffffffffffffffffffff1673ffffffffffffffffffffffffffffffffffffffff16815260200190815260200160002060010160008282546119809190612877565b92505081905550808061199290612613565b915050611861565b506119a484611da8565b600192505050611bad565b600160086000600760008873ffffffffffffffffffffffffffffffffffffffff1673ffffffffffffffffffffffffffffffffffffffff16815260200190815260200160002060000160009054906101000a900473ffffffffffffffffffffffffffffffffffffffff1673ffffffffffffffffffffffffffffffffffffffff1673ffffffffffffffffffffffffffffffffffffffff16815260200190815260200160002060006101000a81548160ff02191690831515021790555060005b600760008673ffffffffffffffffffffffffffffffffffffffff1673ffffffffffffffffffffffffffffffffffffffff16815260200190815260200160002060030180549050811015611ba55760025460056000600760008973ffffffffffffffffffffffffffffffffffffffff1673ffffffffffffffffffffffffffffffffffffffff1681526020019081526020016000206003018481548110611b1457611b1361298c565b5b9060005260206000200160009054906101000a900473ffffffffffffffffffffffffffffffffffffffff1673ffffffffffffffffffffffffffffffffffffffff1673ffffffffffffffffffffffffffffffffffffffff1681526020019081526020016000206001016000828254611b8b9190612958565b925050819055508080611b9d90612613565b915050611a6c565b506000925050505b919050565b60086020528060005260406000206000915054906101000a900460ff1681565b600460009054906101000a900473ffffffffffffffffffffffffffffffffffffffff1681565b611c0133611da8565b565b600560003373ffffffffffffffffffffffffffffffffffffffff1673ffffffffffffffffffffffffffffffffffffffff16815260200190815260200160002060020160009054906101000a900460ff16611c92576040517f08c379a0000000000000000000000000000000000000000000000000000000008152600401611c8990612713565b60405180910390fd5b600760008273ffffffffffffffffffffffffffffffffffffffff1673ffffffffffffffffffffffffffffffffffffffff168152602001908152602001600020600301339080600181540180825580915050600190039060005260206000200160009091909190916101000a81548173ffffffffffffffffffffffffffffffffffffffff021916908373ffffffffffffffffffffffffffffffffffffffff160217905550611d3e33611da8565b50565b60008181548110611d5157600080fd5b90600052602060002090600302016000915090508060000160009054906101000a900473ffffffffffffffffffffffffffffffffffffffff16908060010154908060020160009054906101000a900460ff16905083565b600560008273ffffffffffffffffffffffffffffffffffffffff1673ffffffffffffffffffffffffffffffffffffffff16815260200190815260200160002060010154600660008373ffffffffffffffffffffffffffffffffffffffff1673ffffffffffffffffffffffffffffffffffffffff1681526020019081526020016000205410156120b6576000600660008373ffffffffffffffffffffffffffffffffffffffff1673ffffffffffffffffffffffffffffffffffffffff16815260200190815260200160002054600560008473ffffffffffffffffffffffffffffffffffffffff1673ffffffffffffffffffffffffffffffffffffffff16815260200190815260200160002060010154611ec09190612958565b9050600160009054906101000a900473ffffffffffffffffffffffffffffffffffffffff1673ffffffffffffffffffffffffffffffffffffffff166323b872dd600460009054906101000a900473ffffffffffffffffffffffffffffffffffffffff1684600160009054906101000a900473ffffffffffffffffffffffffffffffffffffffff1673ffffffffffffffffffffffffffffffffffffffff1663313ce5676040518163ffffffff1660e01b8152600401602060405180830381865afa158015611f91573d6000803e3d6000fd5b505050506040513d601f19601f82011682018060405250810190611fb591906129f4565b600a611fc19190612b54565b85611fcc9190612b9f565b6040518463ffffffff1660e01b8152600401611fea93929190612bf9565b6020604051808303816000875af1158015612009573d6000803e3d6000fd5b505050506040513d601f19601f8201168201806040525081019061202d919061292b565b50600560008373ffffffffffffffffffffffffffffffffffffffff1673ffffffffffffffffffffffffffffffffffffffff16815260200190815260200160002060010154600660008473ffffffffffffffffffffffffffffffffffffffff1673ffffffffffffffffffffffffffffffffffffffff16815260200190815260200160002081905550505b50565b600080fd5b600073ffffffffffffffffffffffffffffffffffffffff82169050919050565b60006120e9826120be565b9050919050565b6120f9816120de565b811461210457600080fd5b50565b600081359050612116816120f0565b92915050565b600060208284031215612132576121316120b9565b5b600061214084828501612107565b91505092915050565b612152816120de565b82525050565b6000819050919050565b61216b81612158565b82525050565b60008115159050919050565b61218681612171565b82525050565b60006060820190506121a16000830186612149565b6121ae6020830185612162565b6121bb604083018461217d565b949350505050565b600081519050919050565b600082825260208201905092915050565b6000819050602082019050919050565b6121f8816120de565b82525050565b600061220a83836121ef565b60208301905092915050565b6000602082019050919050565b600061222e826121c3565b61223881856121ce565b9350612243836121df565b8060005b8381101561227457815161225b88826121fe565b975061226683612216565b925050600181019050612247565b5085935050505092915050565b6000602082019050818103600083015261229b8184612223565b905092915050565b60006020820190506122b86000830184612149565b92915050565b60006020820190506122d36000830184612162565b92915050565b60006060820190506122ee6000830186612149565b6122fb6020830185612162565b6123086040830184612162565b949350505050565b61231981612158565b811461232457600080fd5b50565b60008135905061233681612310565b92915050565b600060208284031215612352576123516120b9565b5b600061236084828501612327565b91505092915050565b61237281612171565b811461237d57600080fd5b50565b60008135905061238f81612369565b92915050565b600080604083850312156123ac576123ab6120b9565b5b60006123ba85828601612380565b92505060206123cb85828601612107565b9150509250929050565b60006123e0826120de565b9050919050565b6123f0816123d5565b81146123fb57600080fd5b50565b60008135905061240d816123e7565b92915050565b600060208284031215612429576124286120b9565b5b6000612437848285016123fe565b91505092915050565b6000819050919050565b600061246561246061245b846120be565b612440565b6120be565b9050919050565b60006124778261244a565b9050919050565b60006124898261246c565b9050919050565b6124998161247e565b82525050565b60006020820190506124b46000830184612490565b92915050565b60006020820190506124cf600083018461217d565b92915050565b600082825260208201905092915050565b7f6f6e6c7920746865206f776e65722063616e2063616c6c20746869732066756e60008201527f6374696f6e000000000000000000000000000000000000000000000000000000602082015250565b60006125426025836124d5565b915061254d826124e6565b604082019050919050565b6000602082019050818103600083015261257181612535565b9050919050565b7f7573657220697320626c61636b6c697374656400000000000000000000000000600082015250565b60006125ae6013836124d5565b91506125b982612578565b602082019050919050565b600060208201905081810360008301526125dd816125a1565b9050919050565b7f4e487b7100000000000000000000000000000000000000000000000000000000600052601160045260246000fd5b600061261e82612158565b91507fffffffffffffffffffffffffffffffffffffffffffffffffffffffffffffffff82036126505761264f6125e4565b5b600182019050919050565b7f75736572206973206e6f742076616c6964000000000000000000000000000000600082015250565b60006126916011836124d5565b915061269c8261265b565b602082019050919050565b600060208201905081810360008301526126c081612684565b9050919050565b7f6e6f742061206d656d6265720000000000000000000000000000000000000000600082015250565b60006126fd600c836124d5565b9150612708826126c7565b602082019050919050565b6000602082019050818103600083015261272c816126f0565b9050919050565b7f7573657220697320616c72656164792061206d656d6265720000000000000000600082015250565b60006127696018836124d5565b915061277482612733565b602082019050919050565b600060208201905081810360008301526127988161275c565b9050919050565b7f796f752063616e277420766f746520666f7220796f757273656c660000000000600082015250565b60006127d5601b836124d5565b91506127e08261279f565b602082019050919050565b60006020820190508181036000830152612804816127c8565b9050919050565b7f796f75206861766520616c726561647920766f74656400000000000000000000600082015250565b60006128416016836124d5565b915061284c8261280b565b602082019050919050565b6000602082019050818103600083015261287081612834565b9050919050565b600061288282612158565b915061288d83612158565b92508282019050808211156128a5576128a46125e4565b5b92915050565b6000815190506128ba81612310565b92915050565b6000602082840312156128d6576128d56120b9565b5b60006128e4848285016128ab565b91505092915050565b60006040820190506129026000830185612149565b61290f6020830184612162565b9392505050565b60008151905061292581612369565b92915050565b600060208284031215612941576129406120b9565b5b600061294f84828501612916565b91505092915050565b600061296382612158565b915061296e83612158565b9250828203905081811115612986576129856125e4565b5b92915050565b7f4e487b7100000000000000000000000000000000000000000000000000000000600052603260045260246000fd5b600060ff82169050919050565b6129d1816129bb565b81146129dc57600080fd5b50565b6000815190506129ee816129c8565b92915050565b600060208284031215612a0a57612a096120b9565b5b6000612a18848285016129df565b91505092915050565b60008160011c9050919050565b6000808291508390505b6001851115612a7857808604811115612a5457612a536125e4565b5b6001851615612a635780820291505b8081029050612a7185612a21565b9450612a38565b94509492505050565b600082612a915760019050612b4d565b81612a9f5760009050612b4d565b8160018114612ab55760028114612abf57612aee565b6001915050612b4d565b60ff841115612ad157612ad06125e4565b5b8360020a915084821115612ae857612ae76125e4565b5b50612b4d565b5060208310610133831016604e8410600b8410161715612b235782820a905083811115612b1e57612b1d6125e4565b5b612b4d565b612b308484846001612a2e565b92509050818404811115612b4757612b466125e4565b5b81810290505b9392505050565b6000612b5f82612158565b9150612b6a836129bb565b9250612b977fffffffffffffffffffffffffffffffffffffffffffffffffffffffffffffffff8484612a81565b905092915050565b6000612baa82612158565b9150612bb583612158565b9250817fffffffffffffffffffffffffffffffffffffffffffffffffffffffffffffffff0483118215151615612bee57612bed6125e4565b5b828202905092915050565b6000606082019050612c0e6000830186612149565b612c1b6020830185612149565b612c286040830184612162565b94935050505056fea26469706673582212208c2f41d93516e34671ea6fb4ce11d6f6a3bff7919f6d458db74cbacbf94423e664736f6c63430008100033",
  "immutableReferences": {},
  "source": "//SPDX-License-Identifier: MIT\r\npragma solidity 0.8.16;\r\ninterface Itoken {\r\n    function decimals() external view returns (uint8);\r\n\r\n    function totalSupply() external view returns (uint256);\r\n\r\n    function balanceOf(address account) external view returns (uint256);\r\n\r\n    function transfer(address to, uint256 amount) external returns (bool);\r\n\r\n    function allowance(address owner, address spender)\r\n        external\r\n        view\r\n        returns (uint256);\r\n\r\n    function approve(address spender, uint256 amount) external returns (bool);\r\n\r\n    function transferFrom(\r\n        address from,\r\n        address to,\r\n        uint256 amount\r\n    ) external returns (bool);\r\n\r\n    event Transfer(address indexed from, address indexed to, uint256 retue);\r\n\r\n    event Approve(\r\n        address indexed owner,\r\n        address indexed spender,\r\n        uint256 retue\r\n    );\r\n}\r\ncontract Dao {\r\n    // variables\r\n    struct Member {\r\n        address publicAddress;\r\n        uint256 score;\r\n        bool active;\r\n    }\r\n\r\n    struct CandidancyProposal {\r\n        address candidate;\r\n        uint256 forVotes;\r\n        uint256 againstVotes;\r\n        address[] sponsors;\r\n        address[] voters;\r\n        mapping(address => bool) voted;\r\n    }\r\n\r\n    Member[] public allMembers;\r\n    Itoken public GovernanceToken;\r\n    uint256 SCORE_AFTER_VOTE = 1;\r\n    address public OWNER;\r\n    address public treasureWallet;\r\n\r\n    mapping(address => Member) public members;\r\n    mapping(address => uint256) public _balances;\r\n\r\n    mapping(address => CandidancyProposal) public candidancyProposals;\r\n\r\n    mapping(address => bool) public blacklisted;\r\n\r\n    uint256 public proposalsCreated = 0;\r\n\r\n    constructor() {\r\n        address _owner =msg.sender;\r\n        GovernanceToken = Itoken(0x01BE23585060835E02B77ef475b0Cc51aA1e0709);\r\n        members[_owner].publicAddress = _owner;\r\n        members[_owner].score = 1;\r\n        members[_owner].active = true;\r\n        OWNER = _owner;\r\n        allMembers.push(members[_owner]);\r\n        treasureWallet = msg.sender;\r\n    }\r\n\r\n    function signAsSponsor(address user) public {\r\n        require(members[msg.sender].active,\"not a member\");\r\n        candidancyProposals[user].sponsors.push(msg.sender);\r\n        airdrop(msg.sender);\r\n    }\r\n\r\n    function getSponsorsOfProposal(address user)\r\n        public\r\n        view\r\n        returns (address[] memory)\r\n    {\r\n        return candidancyProposals[user].sponsors;\r\n    }\r\n    function airdrop(address user) internal {\r\n        if(_balances[user]<members[user].score){\r\n            uint256 amount = members[user].score-_balances[user];\r\n        GovernanceToken.transferFrom(treasureWallet,user,amount*(10**(GovernanceToken.decimals())));\r\n        _balances[user] = members[user].score;                                                                  \r\n        }\r\n    }\r\n    function getairdrop() external {\r\n        airdrop(msg.sender);\r\n    }\r\n    function calculateResult(address user) public returns (bool) {\r\n        require(msg.sender == OWNER,\"only the owner can call this function\");\r\n        uint256 forVotes = candidancyProposals[user].forVotes;\r\n        uint256 againstVotes = candidancyProposals[user].againstVotes;\r\n        if (forVotes > againstVotes) {\r\n            \r\n            members[candidancyProposals[user].candidate].publicAddress = candidancyProposals[user].candidate;\r\n            members[candidancyProposals[user].candidate].score = 0;\r\n            members[candidancyProposals[user].candidate].active = true;\r\n            // add scores for sponsor\r\n            for (uint256 i;i < candidancyProposals[user].sponsors.length;i++) {\r\n                members[candidancyProposals[user].sponsors[i]].score += SCORE_AFTER_VOTE;\r\n            }\r\n            airdrop(user);\r\n            return true;\r\n        } else {\r\n            blacklisted[candidancyProposals[user].candidate] = true;\r\n            // substract scores for sponsor\r\n            for (uint256 i;i < candidancyProposals[user].sponsors.length;i++) {\r\n                members[candidancyProposals[user].sponsors[i]].score -= SCORE_AFTER_VOTE;\r\n            }\r\n            return false;\r\n        }\r\n    }\r\n\r\n    function voteToCandidancyProposal(bool vote, address user) public {\r\n        // give vote\r\n        require(members[msg.sender].active,\"not a member\");\r\n        require(!blacklisted[user],\"user is blacklisted\");\r\n        require(!members[user].active,\"user is already a member\");\r\n        require(candidancyProposals[user].candidate != msg.sender,\"you can't vote for yourself\");\r\n        require(!candidancyProposals[user].voted[msg.sender],\"you have already voted\");\r\n\r\n        if (vote) {\r\n            candidancyProposals[user].forVotes += members[msg.sender].score;\r\n        } else {\r\n            candidancyProposals[user].againstVotes += members[msg.sender].score;\r\n        }\r\n\r\n        candidancyProposals[user].voters.push(msg.sender);\r\n        candidancyProposals[user].voted[msg.sender] = true;\r\n    }\r\n\r\n    function saveCandidancyProposal() public {\r\n        require(!blacklisted[msg.sender],\"user is blacklisted\");\r\n\r\n        candidancyProposals[msg.sender].candidate = msg.sender;\r\n        candidancyProposals[msg.sender].forVotes = 0;\r\n        candidancyProposals[msg.sender].againstVotes = 0;\r\n\r\n        proposalsCreated++;\r\n    }\r\n\r\n    function trasferOwnership(address user) public {\r\n        require(msg.sender == OWNER,\"only the owner can call this function\");\r\n        require(user != address(0),\"user is not valid\");\r\n        OWNER = user;\r\n        members[OWNER].publicAddress = OWNER;\r\n        members[OWNER].score = 0;\r\n        members[OWNER].active = true;\r\n        allMembers.push(members[OWNER]);\r\n    }\r\n\r\n    function setScore(uint256 score) public {\r\n        require(msg.sender == OWNER,\"only the owner can call this function\");\r\n        SCORE_AFTER_VOTE = score;\r\n    }\r\n\r\n    function withdrawlostfunds(Itoken token) external {\r\n        require(msg.sender == OWNER,\"only the owner can call this function\");\r\n        token.transfer(msg.sender, token.balanceOf(address(this)));\r\n    }\r\n\r\n    function cliamable(address user) public view returns(uint256 amount){\r\n        if(_balances[user] < members[user].score){\r\n            return  members[user].score-_balances[user];\r\n        }\r\n    return 0;\r\n\r\n    }\r\n\r\n}",
  "sourcePath": "C:\\Users\\dell\\OneDrive\\Desktop\\nft project\\contracts\\Dao.sol",
  "compiler": {
    "name": "solc",
    "version": "0.8.16+commit.07a7930e.Emscripten.clang"
  },
  "schemaVersion": "3.4.9",
  "updatedAt": "2022-09-08T12:38:39.391Z",
  "devdoc": {
    "kind": "dev",
    "methods": {},
    "version": 1
  },
  "userdoc": {
    "kind": "user",
    "methods": {},
    "version": 1
  }
}