{
  "contractName": "randomWord",
  "abi": [
    {
      "inputs": [],
      "stateMutability": "nonpayable",
      "type": "constructor"
    },
    {
      "inputs": [
        {
          "internalType": "address",
          "name": "have",
          "type": "address"
        },
        {
          "internalType": "address",
          "name": "want",
          "type": "address"
        }
      ],
      "name": "OnlyCoordinatorCanFulfill",
      "type": "error"
    },
    {
      "inputs": [
        {
          "internalType": "uint256",
          "name": "requestId",
          "type": "uint256"
        },
        {
          "internalType": "uint256[]",
          "name": "randomWords",
          "type": "uint256[]"
        }
      ],
      "name": "rawFulfillRandomWords",
      "outputs": [],
      "stateMutability": "nonpayable",
      "type": "function"
    },
    {
      "inputs": [
        {
          "internalType": "uint256",
          "name": "",
          "type": "uint256"
        }
      ],
      "name": "s_randomWords",
      "outputs": [
        {
          "internalType": "uint256",
          "name": "",
          "type": "uint256"
        }
      ],
      "stateMutability": "view",
      "type": "function",
      "constant": true
    },
    {
      "inputs": [],
      "name": "s_requestId",
      "outputs": [
        {
          "internalType": "uint256",
          "name": "",
          "type": "uint256"
        }
      ],
      "stateMutability": "view",
      "type": "function",
      "constant": true
    },
    {
      "inputs": [],
      "name": "requestRandomWords",
      "outputs": [],
      "stateMutability": "nonpayable",
      "type": "function"
    },
    {
      "inputs": [
        {
          "internalType": "uint256",
          "name": "a",
          "type": "uint256"
        }
      ],
      "name": "srandomwords",
      "outputs": [
        {
          "internalType": "uint256",
          "name": "",
          "type": "uint256"
        }
      ],
      "stateMutability": "view",
      "type": "function",
      "constant": true
    }
  ],
  "bytecode": "0x60a06040526106f2600060146101000a81548167ffffffffffffffff021916908367ffffffffffffffff160217905550736a2aad07396b36fe02a22b33cf443582f682c82f600160006101000a81548173ffffffffffffffffffffffffffffffffffffffff021916908373ffffffffffffffffffffffffffffffffffffffff1602179055507fd4bb89654db74673a187bd804519e65e3f71a52bc55f11da7601a13dcf50531460001b600255620f4240600360006101000a81548163ffffffff021916908363ffffffff16021790555060038060046101000a81548161ffff021916908361ffff1602179055506002600360066101000a81548163ffffffff021916908363ffffffff16021790555034801561011a57600080fd5b50600160009054906101000a900473ffffffffffffffffffffffffffffffffffffffff168073ffffffffffffffffffffffffffffffffffffffff1660808173ffffffffffffffffffffffffffffffffffffffff168152505050600160009054906101000a900473ffffffffffffffffffffffffffffffffffffffff166000806101000a81548173ffffffffffffffffffffffffffffffffffffffff021916908373ffffffffffffffffffffffffffffffffffffffff16021790555033600660006101000a81548173ffffffffffffffffffffffffffffffffffffffff021916908373ffffffffffffffffffffffffffffffffffffffff16021790555060805161081b610238600039600081816101020152610156015261081b6000f3fe608060405234801561001057600080fd5b50600436106100575760003560e01c80631fe543e31461005c5780632e28598e14610078578063e0c86289146100a8578063e89e106a146100b2578063f6eaffc8146100d0575b600080fd5b6100766004803603810190610071919061058c565b610100565b005b610092600480360381019061008d91906105e8565b6101c0565b60405161009f9190610624565b60405180910390f35b6100b06101e8565b005b6100ba61033a565b6040516100c79190610624565b60405180910390f35b6100ea60048036038101906100e591906105e8565b610340565b6040516100f79190610624565b60405180910390f35b7f000000000000000000000000000000000000000000000000000000000000000073ffffffffffffffffffffffffffffffffffffffff163373ffffffffffffffffffffffffffffffffffffffff16146101b257337f00000000000000000000000000000000000000000000000000000000000000006040517f1cf993f40000000000000000000000000000000000000000000000000000000081526004016101a9929190610680565b60405180910390fd5b6101bc8282610364565b5050565b6000600482815481106101d6576101d56106a9565b5b90600052602060002001549050919050565b600660009054906101000a900473ffffffffffffffffffffffffffffffffffffffff1673ffffffffffffffffffffffffffffffffffffffff163373ffffffffffffffffffffffffffffffffffffffff161461024257600080fd5b60008054906101000a900473ffffffffffffffffffffffffffffffffffffffff1673ffffffffffffffffffffffffffffffffffffffff16635d3b1d30600254600060149054906101000a900467ffffffffffffffff16600360049054906101000a900461ffff16600360009054906101000a900463ffffffff16600360069054906101000a900463ffffffff166040518663ffffffff1660e01b81526004016102ef959493929190610750565b6020604051808303816000875af115801561030e573d6000803e3d6000fd5b505050506040513d601f19601f8201168201806040525081019061033291906107b8565b600581905550565b60055481565b6004818154811061035057600080fd5b906000526020600020016000915090505481565b806004908051906020019061037a92919061037f565b505050565b8280548282559060005260206000209081019282156103bb579160200282015b828111156103ba57825182559160200191906001019061039f565b5b5090506103c891906103cc565b5090565b5b808211156103e55760008160009055506001016103cd565b5090565b6000604051905090565b600080fd5b600080fd5b6000819050919050565b610410816103fd565b811461041b57600080fd5b50565b60008135905061042d81610407565b92915050565b600080fd5b6000601f19601f8301169050919050565b7f4e487b7100000000000000000000000000000000000000000000000000000000600052604160045260246000fd5b61048182610438565b810181811067ffffffffffffffff821117156104a05761049f610449565b5b80604052505050565b60006104b36103e9565b90506104bf8282610478565b919050565b600067ffffffffffffffff8211156104df576104de610449565b5b602082029050602081019050919050565b600080fd5b6000610508610503846104c4565b6104a9565b9050808382526020820190506020840283018581111561052b5761052a6104f0565b5b835b818110156105545780610540888261041e565b84526020840193505060208101905061052d565b5050509392505050565b600082601f83011261057357610572610433565b5b81356105838482602086016104f5565b91505092915050565b600080604083850312156105a3576105a26103f3565b5b60006105b18582860161041e565b925050602083013567ffffffffffffffff8111156105d2576105d16103f8565b5b6105de8582860161055e565b9150509250929050565b6000602082840312156105fe576105fd6103f3565b5b600061060c8482850161041e565b91505092915050565b61061e816103fd565b82525050565b60006020820190506106396000830184610615565b92915050565b600073ffffffffffffffffffffffffffffffffffffffff82169050919050565b600061066a8261063f565b9050919050565b61067a8161065f565b82525050565b60006040820190506106956000830185610671565b6106a26020830184610671565b9392505050565b7f4e487b7100000000000000000000000000000000000000000000000000000000600052603260045260246000fd5b6000819050919050565b6106eb816106d8565b82525050565b600067ffffffffffffffff82169050919050565b61070e816106f1565b82525050565b600061ffff82169050919050565b61072b81610714565b82525050565b600063ffffffff82169050919050565b61074a81610731565b82525050565b600060a08201905061076560008301886106e2565b6107726020830187610705565b61077f6040830186610722565b61078c6060830185610741565b6107996080830184610741565b9695505050505050565b6000815190506107b281610407565b92915050565b6000602082840312156107ce576107cd6103f3565b5b60006107dc848285016107a3565b9150509291505056fea264697066735822122026056f0821e03ebd465519eaa85bbb285ace8c092a771b1b0d2f26d59d9c7b6e64736f6c63430008100033",
  "immutableReferences": {
    "10": [
      {
        "length": 32,
        "start": 258
      },
      {
        "length": 32,
        "start": 342
      }
    ]
  },
  "source": "// SPDX-License-Identifier: MIT\r\npragma solidity ^0.8.7;\r\n\r\nimport \"@chainlink/contracts/src/v0.8/interfaces/VRFCoordinatorV2Interface.sol\";\r\nimport \"@chainlink/contracts/src/v0.8/VRFConsumerBaseV2.sol\";\r\n\r\n\r\ncontract randomWord is VRFConsumerBaseV2 {\r\n  VRFCoordinatorV2Interface COORDINATOR;\r\n  uint64 s_subscriptionId = 1778;\r\n  address vrfCoordinator = \t0x6A2AAd07396B36Fe02a22b33cf443582f682c82f;\r\n  bytes32 keyHash =0xd4bb89654db74673a187bd804519e65e3f71a52bc55f11da7601a13dcf505314;\r\n  uint32 callbackGasLimit = 1000000;\r\n  uint16 requestConfirmations = 3;\r\n  uint32 numWords =  2;\r\n  uint256[] public s_randomWords;\r\n  uint256 public s_requestId;\r\n  address s_owner;\r\n\r\n  constructor() VRFConsumerBaseV2(vrfCoordinator) {\r\n    COORDINATOR = VRFCoordinatorV2Interface(vrfCoordinator);\r\n    s_owner = msg.sender;\r\n    //s_subscriptionId = subscriptionId;\r\n  }\r\n\r\n  // Assumes the subscription is funded sufficiently.\r\n  function requestRandomWords() external onlyOwner {\r\n    // Will revert if subscription is not set and funded.\r\n    s_requestId = COORDINATOR.requestRandomWords(\r\n      keyHash,\r\n      s_subscriptionId,\r\n      requestConfirmations,\r\n      callbackGasLimit,\r\n      numWords\r\n    );\r\n  }\r\n  function srandomwords(uint256 a) public view  returns(uint256){\r\n      return s_randomWords[a];\r\n  }\r\n  function fulfillRandomWords(\r\n    uint256, /* requestId */\r\n    uint256[] memory randomWords\r\n  ) internal override {\r\n    s_randomWords = randomWords;\r\n  }\r\n\r\n  modifier onlyOwner() {\r\n    require(msg.sender == s_owner);\r\n    _;\r\n  }\r\n}\r\n",
  "sourcePath": "C:\\Users\\dell\\OneDrive\\Desktop\\nft project\\contracts\\RandomNumber.sol",
  "compiler": {
    "name": "solc",
    "version": "0.8.16+commit.07a7930e.Emscripten.clang"
  },
  "schemaVersion": "3.4.9",
  "updatedAt": "2022-09-08T12:39:11.402Z",
  "networkType": "ethereum",
  "devdoc": {
    "kind": "dev",
    "methods": {},
    "version": 1
  },
  "userdoc": {
    "kind": "user",
    "methods": {},
    "version": 1
  }
}