{
  "contractName": "SmartContract",
  "abi": [
    {
      "inputs": [],
      "stateMutability": "nonpayable",
      "type": "constructor"
    },
    {
      "anonymous": false,
      "inputs": [
        {
          "indexed": true,
          "internalType": "address",
          "name": "owner",
          "type": "address"
        },
        {
          "indexed": true,
          "internalType": "address",
          "name": "approved",
          "type": "address"
        },
        {
          "indexed": true,
          "internalType": "uint256",
          "name": "tokenId",
          "type": "uint256"
        }
      ],
      "name": "Approval",
      "type": "event"
    },
    {
      "anonymous": false,
      "inputs": [
        {
          "indexed": true,
          "internalType": "address",
          "name": "owner",
          "type": "address"
        },
        {
          "indexed": true,
          "internalType": "address",
          "name": "operator",
          "type": "address"
        },
        {
          "indexed": false,
          "internalType": "bool",
          "name": "approved",
          "type": "bool"
        }
      ],
      "name": "ApprovalForAll",
      "type": "event"
    },
    {
      "anonymous": false,
      "inputs": [
        {
          "indexed": true,
          "internalType": "address",
          "name": "previousOwner",
          "type": "address"
        },
        {
          "indexed": true,
          "internalType": "address",
          "name": "newOwner",
          "type": "address"
        }
      ],
      "name": "OwnershipTransferred",
      "type": "event"
    },
    {
      "anonymous": false,
      "inputs": [
        {
          "indexed": true,
          "internalType": "address",
          "name": "from",
          "type": "address"
        },
        {
          "indexed": true,
          "internalType": "address",
          "name": "to",
          "type": "address"
        },
        {
          "indexed": true,
          "internalType": "uint256",
          "name": "tokenId",
          "type": "uint256"
        }
      ],
      "name": "Transfer",
      "type": "event"
    },
    {
      "inputs": [
        {
          "internalType": "address",
          "name": "to",
          "type": "address"
        },
        {
          "internalType": "uint256",
          "name": "tokenId",
          "type": "uint256"
        }
      ],
      "name": "approve",
      "outputs": [],
      "stateMutability": "nonpayable",
      "type": "function"
    },
    {
      "inputs": [
        {
          "internalType": "address",
          "name": "owner",
          "type": "address"
        }
      ],
      "name": "balanceOf",
      "outputs": [
        {
          "internalType": "uint256",
          "name": "",
          "type": "uint256"
        }
      ],
      "stateMutability": "view",
      "type": "function"
    },
    {
      "inputs": [
        {
          "internalType": "uint256",
          "name": "tokenId",
          "type": "uint256"
        }
      ],
      "name": "getApproved",
      "outputs": [
        {
          "internalType": "address",
          "name": "",
          "type": "address"
        }
      ],
      "stateMutability": "view",
      "type": "function"
    },
    {
      "inputs": [
        {
          "internalType": "address",
          "name": "owner",
          "type": "address"
        },
        {
          "internalType": "address",
          "name": "operator",
          "type": "address"
        }
      ],
      "name": "isApprovedForAll",
      "outputs": [
        {
          "internalType": "bool",
          "name": "",
          "type": "bool"
        }
      ],
      "stateMutability": "view",
      "type": "function"
    },
    {
      "inputs": [],
      "name": "name",
      "outputs": [
        {
          "internalType": "string",
          "name": "",
          "type": "string"
        }
      ],
      "stateMutability": "view",
      "type": "function"
    },
    {
      "inputs": [],
      "name": "owner",
      "outputs": [
        {
          "internalType": "address",
          "name": "",
          "type": "address"
        }
      ],
      "stateMutability": "view",
      "type": "function"
    },
    {
      "inputs": [
        {
          "internalType": "uint256",
          "name": "tokenId",
          "type": "uint256"
        }
      ],
      "name": "ownerOf",
      "outputs": [
        {
          "internalType": "address",
          "name": "",
          "type": "address"
        }
      ],
      "stateMutability": "view",
      "type": "function"
    },
    {
      "inputs": [],
      "name": "renounceOwnership",
      "outputs": [],
      "stateMutability": "nonpayable",
      "type": "function"
    },
    {
      "inputs": [
        {
          "internalType": "address",
          "name": "from",
          "type": "address"
        },
        {
          "internalType": "address",
          "name": "to",
          "type": "address"
        },
        {
          "internalType": "uint256",
          "name": "tokenId",
          "type": "uint256"
        }
      ],
      "name": "safeTransferFrom",
      "outputs": [],
      "stateMutability": "nonpayable",
      "type": "function"
    },
    {
      "inputs": [
        {
          "internalType": "address",
          "name": "from",
          "type": "address"
        },
        {
          "internalType": "address",
          "name": "to",
          "type": "address"
        },
        {
          "internalType": "uint256",
          "name": "tokenId",
          "type": "uint256"
        },
        {
          "internalType": "bytes",
          "name": "data",
          "type": "bytes"
        }
      ],
      "name": "safeTransferFrom",
      "outputs": [],
      "stateMutability": "nonpayable",
      "type": "function"
    },
    {
      "inputs": [
        {
          "internalType": "address",
          "name": "operator",
          "type": "address"
        },
        {
          "internalType": "bool",
          "name": "approved",
          "type": "bool"
        }
      ],
      "name": "setApprovalForAll",
      "outputs": [],
      "stateMutability": "nonpayable",
      "type": "function"
    },
    {
      "inputs": [
        {
          "internalType": "bytes4",
          "name": "interfaceId",
          "type": "bytes4"
        }
      ],
      "name": "supportsInterface",
      "outputs": [
        {
          "internalType": "bool",
          "name": "",
          "type": "bool"
        }
      ],
      "stateMutability": "view",
      "type": "function"
    },
    {
      "inputs": [],
      "name": "symbol",
      "outputs": [
        {
          "internalType": "string",
          "name": "",
          "type": "string"
        }
      ],
      "stateMutability": "view",
      "type": "function"
    },
    {
      "inputs": [
        {
          "internalType": "address",
          "name": "from",
          "type": "address"
        },
        {
          "internalType": "address",
          "name": "to",
          "type": "address"
        },
        {
          "internalType": "uint256",
          "name": "tokenId",
          "type": "uint256"
        }
      ],
      "name": "transferFrom",
      "outputs": [],
      "stateMutability": "nonpayable",
      "type": "function"
    },
    {
      "inputs": [
        {
          "internalType": "address",
          "name": "newOwner",
          "type": "address"
        }
      ],
      "name": "transferOwnership",
      "outputs": [],
      "stateMutability": "nonpayable",
      "type": "function"
    },
    {
      "inputs": [
        {
          "internalType": "uint256",
          "name": "tokenId",
          "type": "uint256"
        }
      ],
      "name": "tokenURI",
      "outputs": [
        {
          "internalType": "string",
          "name": "",
          "type": "string"
        }
      ],
      "stateMutability": "view",
      "type": "function"
    },
    {
      "inputs": [],
      "name": "getAllTokens",
      "outputs": [
        {
          "components": [
            {
              "internalType": "uint256",
              "name": "id",
              "type": "uint256"
            },
            {
              "internalType": "string",
              "name": "uri",
              "type": "string"
            }
          ],
          "internalType": "struct SmartContract.RenderToken[]",
          "name": "",
          "type": "tuple[]"
        }
      ],
      "stateMutability": "view",
      "type": "function"
    },
    {
      "inputs": [
        {
          "internalType": "address",
          "name": "recipient",
          "type": "address"
        },
        {
          "internalType": "string",
          "name": "uri",
          "type": "string"
        }
      ],
      "name": "mint",
      "outputs": [
        {
          "internalType": "uint256",
          "name": "",
          "type": "uint256"
        }
      ],
      "stateMutability": "nonpayable",
      "type": "function"
    }
  ],
  "bytecode": "0x60806040523480156200001157600080fd5b506040518060400160405280600e81526020017f536d61727420436f6e74726163740000000000000000000000000000000000008152506040518060400160405280600281526020017f534300000000000000000000000000000000000000000000000000000000000081525081600090816200008f919062000412565b508060019081620000a1919062000412565b505050620000c4620000b8620000ca60201b60201c565b620000d260201b60201c565b620004f9565b600033905090565b6000600660009054906101000a900473ffffffffffffffffffffffffffffffffffffffff16905081600660006101000a81548173ffffffffffffffffffffffffffffffffffffffff021916908373ffffffffffffffffffffffffffffffffffffffff1602179055508173ffffffffffffffffffffffffffffffffffffffff168173ffffffffffffffffffffffffffffffffffffffff167f8be0079c531659141344cd1fd0a4f28419497f9722a3daafe3b4186f6b6457e060405160405180910390a35050565b600081519050919050565b7f4e487b7100000000000000000000000000000000000000000000000000000000600052604160045260246000fd5b7f4e487b7100000000000000000000000000000000000000000000000000000000600052602260045260246000fd5b600060028204905060018216806200021a57607f821691505b60208210810362000230576200022f620001d2565b5b50919050565b60008190508160005260206000209050919050565b60006020601f8301049050919050565b600082821b905092915050565b6000600883026200029a7fffffffffffffffffffffffffffffffffffffffffffffffffffffffffffffffff826200025b565b620002a686836200025b565b95508019841693508086168417925050509392505050565b6000819050919050565b6000819050919050565b6000620002f3620002ed620002e784620002be565b620002c8565b620002be565b9050919050565b6000819050919050565b6200030f83620002d2565b620003276200031e82620002fa565b84845462000268565b825550505050565b600090565b6200033e6200032f565b6200034b81848462000304565b505050565b5b8181101562000373576200036760008262000334565b60018101905062000351565b5050565b601f821115620003c2576200038c8162000236565b62000397846200024b565b81016020851015620003a7578190505b620003bf620003b6856200024b565b83018262000350565b50505b505050565b600082821c905092915050565b6000620003e760001984600802620003c7565b1980831691505092915050565b6000620004028383620003d4565b9150826002028217905092915050565b6200041d8262000198565b67ffffffffffffffff811115620004395762000438620001a3565b5b62000445825462000201565b6200045282828562000377565b600060209050601f8311600181146200048a576000841562000475578287015190505b620004818582620003f4565b865550620004f1565b601f1984166200049a8662000236565b60005b82811015620004c4578489015182556001820191506020850194506020810190506200049d565b86831015620004e45784890151620004e0601f891682620003d4565b8355505b6001600288020188555050505b505050505050565b612c4b80620005096000396000f3fe608060405234801561001057600080fd5b50600436106101165760003560e01c8063715018a6116100a2578063b88d4fde11610071578063b88d4fde146102cd578063c87b56dd146102e9578063d0def52114610319578063e985e9c514610349578063f2fde38b1461037957610116565b8063715018a61461026b5780638da5cb5b1461027557806395d89b4114610293578063a22cb465146102b157610116565b806323b872dd116100e957806323b872dd146101b55780632a5c792a146101d157806342842e0e146101ef5780636352211e1461020b57806370a082311461023b57610116565b806301ffc9a71461011b57806306fdde031461014b578063081812fc14610169578063095ea7b314610199575b600080fd5b610135600480360381019061013091906118d5565b610395565b604051610142919061191d565b60405180910390f35b610153610477565b60405161016091906119c8565b60405180910390f35b610183600480360381019061017e9190611a20565b610509565b6040516101909190611a8e565b60405180910390f35b6101b360048036038101906101ae9190611ad5565b61054f565b005b6101cf60048036038101906101ca9190611b15565b610666565b005b6101d96106c6565b6040516101e69190611cc0565b60405180910390f35b61020960048036038101906102049190611b15565b6107b5565b005b61022560048036038101906102209190611a20565b6107d5565b6040516102329190611a8e565b60405180910390f35b61025560048036038101906102509190611ce2565b610886565b6040516102629190611d1e565b60405180910390f35b61027361093d565b005b61027d610951565b60405161028a9190611a8e565b60405180910390f35b61029b61097b565b6040516102a891906119c8565b60405180910390f35b6102cb60048036038101906102c69190611d65565b610a0d565b005b6102e760048036038101906102e29190611eda565b610a23565b005b61030360048036038101906102fe9190611a20565b610a85565b60405161031091906119c8565b60405180910390f35b610333600480360381019061032e9190611ffe565b610b42565b6040516103409190611d1e565b60405180910390f35b610363600480360381019061035e919061205a565b610b79565b604051610370919061191d565b60405180910390f35b610393600480360381019061038e9190611ce2565b610c0d565b005b60007f80ac58cd000000000000000000000000000000000000000000000000000000007bffffffffffffffffffffffffffffffffffffffffffffffffffffffff1916827bffffffffffffffffffffffffffffffffffffffffffffffffffffffff1916148061046057507f5b5e139f000000000000000000000000000000000000000000000000000000007bffffffffffffffffffffffffffffffffffffffffffffffffffffffff1916827bffffffffffffffffffffffffffffffffffffffffffffffffffffffff1916145b80610470575061046f82610c90565b5b9050919050565b606060008054610486906120c9565b80601f01602080910402602001604051908101604052809291908181526020018280546104b2906120c9565b80156104ff5780601f106104d4576101008083540402835291602001916104ff565b820191906000526020600020905b8154815290600101906020018083116104e257829003601f168201915b5050505050905090565b600061051482610cfa565b6004600083815260200190815260200160002060009054906101000a900473ffffffffffffffffffffffffffffffffffffffff169050919050565b600061055a826107d5565b90508073ffffffffffffffffffffffffffffffffffffffff168373ffffffffffffffffffffffffffffffffffffffff16036105ca576040517f08c379a00000000000000000000000000000000000000000000000000000000081526004016105c19061216c565b60405180910390fd5b8073ffffffffffffffffffffffffffffffffffffffff166105e9610d45565b73ffffffffffffffffffffffffffffffffffffffff161480610618575061061781610612610d45565b610b79565b5b610657576040517f08c379a000000000000000000000000000000000000000000000000000000000815260040161064e906121fe565b60405180910390fd5b6106618383610d4d565b505050565b610677610671610d45565b82610e06565b6106b6576040517f08c379a00000000000000000000000000000000000000000000000000000000081526004016106ad90612290565b60405180910390fd5b6106c1838383610e9b565b505050565b606060006106d46007611101565b90506000808267ffffffffffffffff8111156106f3576106f2611daf565b5b60405190808252806020026020018201604052801561072c57816020015b61071961184f565b8152602001906001900390816107115790505b50905060005b838110156107ab576107438361110f565b1561078a57600061075384610a85565b905060405180604001604052808581526020018281525083858151811061077d5761077c6122b0565b5b6020026020010181905250505b82806107959061230e565b93505080806107a39061230e565b915050610732565b5080935050505090565b6107d083838360405180602001604052806000815250610a23565b505050565b6000806002600084815260200190815260200160002060009054906101000a900473ffffffffffffffffffffffffffffffffffffffff169050600073ffffffffffffffffffffffffffffffffffffffff168173ffffffffffffffffffffffffffffffffffffffff160361087d576040517f08c379a0000000000000000000000000000000000000000000000000000000008152600401610874906123a2565b60405180910390fd5b80915050919050565b60008073ffffffffffffffffffffffffffffffffffffffff168273ffffffffffffffffffffffffffffffffffffffff16036108f6576040517f08c379a00000000000000000000000000000000000000000000000000000000081526004016108ed90612434565b60405180910390fd5b600360008373ffffffffffffffffffffffffffffffffffffffff1673ffffffffffffffffffffffffffffffffffffffff168152602001908152602001600020549050919050565b61094561117b565b61094f60006111f9565b565b6000600660009054906101000a900473ffffffffffffffffffffffffffffffffffffffff16905090565b60606001805461098a906120c9565b80601f01602080910402602001604051908101604052809291908181526020018280546109b6906120c9565b8015610a035780601f106109d857610100808354040283529160200191610a03565b820191906000526020600020905b8154815290600101906020018083116109e657829003601f168201915b5050505050905090565b610a1f610a18610d45565b83836112bf565b5050565b610a34610a2e610d45565b83610e06565b610a73576040517f08c379a0000000000000000000000000000000000000000000000000000000008152600401610a6a90612290565b60405180910390fd5b610a7f8484848461142b565b50505050565b6060610a908261110f565b610a9957600080fd5b6000600860008481526020019081526020016000208054610ab9906120c9565b80601f0160208091040260200160405190810160405280929190818152602001828054610ae5906120c9565b8015610b325780601f10610b0757610100808354040283529160200191610b32565b820191906000526020600020905b815481529060010190602001808311610b1557829003601f168201915b5050505050905080915050919050565b600080610b4f6007611101565b9050610b5b8482611487565b610b658184611660565b610b6f6007611685565b8091505092915050565b6000600560008473ffffffffffffffffffffffffffffffffffffffff1673ffffffffffffffffffffffffffffffffffffffff16815260200190815260200160002060008373ffffffffffffffffffffffffffffffffffffffff1673ffffffffffffffffffffffffffffffffffffffff16815260200190815260200160002060009054906101000a900460ff16905092915050565b610c1561117b565b600073ffffffffffffffffffffffffffffffffffffffff168173ffffffffffffffffffffffffffffffffffffffff1603610c84576040517f08c379a0000000000000000000000000000000000000000000000000000000008152600401610c7b906124c6565b60405180910390fd5b610c8d816111f9565b50565b60007f01ffc9a7000000000000000000000000000000000000000000000000000000007bffffffffffffffffffffffffffffffffffffffffffffffffffffffff1916827bffffffffffffffffffffffffffffffffffffffffffffffffffffffff1916149050919050565b610d038161110f565b610d42576040517f08c379a0000000000000000000000000000000000000000000000000000000008152600401610d39906123a2565b60405180910390fd5b50565b600033905090565b816004600083815260200190815260200160002060006101000a81548173ffffffffffffffffffffffffffffffffffffffff021916908373ffffffffffffffffffffffffffffffffffffffff160217905550808273ffffffffffffffffffffffffffffffffffffffff16610dc0836107d5565b73ffffffffffffffffffffffffffffffffffffffff167f8c5be1e5ebec7d5bd14f71427d1e84f3dd0314c0f7b2291e5b200ac8c7c3b92560405160405180910390a45050565b600080610e12836107d5565b90508073ffffffffffffffffffffffffffffffffffffffff168473ffffffffffffffffffffffffffffffffffffffff161480610e545750610e538185610b79565b5b80610e9257508373ffffffffffffffffffffffffffffffffffffffff16610e7a84610509565b73ffffffffffffffffffffffffffffffffffffffff16145b91505092915050565b8273ffffffffffffffffffffffffffffffffffffffff16610ebb826107d5565b73ffffffffffffffffffffffffffffffffffffffff1614610f11576040517f08c379a0000000000000000000000000000000000000000000000000000000008152600401610f0890612558565b60405180910390fd5b600073ffffffffffffffffffffffffffffffffffffffff168273ffffffffffffffffffffffffffffffffffffffff1603610f80576040517f08c379a0000000000000000000000000000000000000000000000000000000008152600401610f77906125ea565b60405180910390fd5b610f8b83838361169b565b610f96600082610d4d565b6001600360008573ffffffffffffffffffffffffffffffffffffffff1673ffffffffffffffffffffffffffffffffffffffff1681526020019081526020016000206000828254610fe6919061260a565b925050819055506001600360008473ffffffffffffffffffffffffffffffffffffffff1673ffffffffffffffffffffffffffffffffffffffff168152602001908152602001600020600082825461103d919061263e565b92505081905550816002600083815260200190815260200160002060006101000a81548173ffffffffffffffffffffffffffffffffffffffff021916908373ffffffffffffffffffffffffffffffffffffffff160217905550808273ffffffffffffffffffffffffffffffffffffffff168473ffffffffffffffffffffffffffffffffffffffff167fddf252ad1be2c89b69c2b068fc378daa952ba7f163c4a11628f55a4df523b3ef60405160405180910390a46110fc8383836116a0565b505050565b600081600001549050919050565b60008073ffffffffffffffffffffffffffffffffffffffff166002600084815260200190815260200160002060009054906101000a900473ffffffffffffffffffffffffffffffffffffffff1673ffffffffffffffffffffffffffffffffffffffff1614159050919050565b611183610d45565b73ffffffffffffffffffffffffffffffffffffffff166111a1610951565b73ffffffffffffffffffffffffffffffffffffffff16146111f7576040517f08c379a00000000000000000000000000000000000000000000000000000000081526004016111ee906126be565b60405180910390fd5b565b6000600660009054906101000a900473ffffffffffffffffffffffffffffffffffffffff16905081600660006101000a81548173ffffffffffffffffffffffffffffffffffffffff021916908373ffffffffffffffffffffffffffffffffffffffff1602179055508173ffffffffffffffffffffffffffffffffffffffff168173ffffffffffffffffffffffffffffffffffffffff167f8be0079c531659141344cd1fd0a4f28419497f9722a3daafe3b4186f6b6457e060405160405180910390a35050565b8173ffffffffffffffffffffffffffffffffffffffff168373ffffffffffffffffffffffffffffffffffffffff160361132d576040517f08c379a00000000000000000000000000000000000000000000000000000000081526004016113249061272a565b60405180910390fd5b80600560008573ffffffffffffffffffffffffffffffffffffffff1673ffffffffffffffffffffffffffffffffffffffff16815260200190815260200160002060008473ffffffffffffffffffffffffffffffffffffffff1673ffffffffffffffffffffffffffffffffffffffff16815260200190815260200160002060006101000a81548160ff0219169083151502179055508173ffffffffffffffffffffffffffffffffffffffff168373ffffffffffffffffffffffffffffffffffffffff167f17307eab39ab6107e8899845ad3d59bd9653f200f220920489ca2b5937696c318360405161141e919061191d565b60405180910390a3505050565b611436848484610e9b565b611442848484846116a5565b611481576040517f08c379a0000000000000000000000000000000000000000000000000000000008152600401611478906127bc565b60405180910390fd5b50505050565b600073ffffffffffffffffffffffffffffffffffffffff168273ffffffffffffffffffffffffffffffffffffffff16036114f6576040517f08c379a00000000000000000000000000000000000000000000000000000000081526004016114ed90612828565b60405180910390fd5b6114ff8161110f565b1561153f576040517f08c379a000000000000000000000000000000000000000000000000000000000815260040161153690612894565b60405180910390fd5b61154b6000838361169b565b6001600360008473ffffffffffffffffffffffffffffffffffffffff1673ffffffffffffffffffffffffffffffffffffffff168152602001908152602001600020600082825461159b919061263e565b92505081905550816002600083815260200190815260200160002060006101000a81548173ffffffffffffffffffffffffffffffffffffffff021916908373ffffffffffffffffffffffffffffffffffffffff160217905550808273ffffffffffffffffffffffffffffffffffffffff16600073ffffffffffffffffffffffffffffffffffffffff167fddf252ad1be2c89b69c2b068fc378daa952ba7f163c4a11628f55a4df523b3ef60405160405180910390a461165c600083836116a0565b5050565b806008600084815260200190815260200160002090816116809190612a60565b505050565b6001816000016000828254019250508190555050565b505050565b505050565b60006116c68473ffffffffffffffffffffffffffffffffffffffff1661182c565b1561181f578373ffffffffffffffffffffffffffffffffffffffff1663150b7a026116ef610d45565b8786866040518563ffffffff1660e01b81526004016117119493929190612b87565b6020604051808303816000875af192505050801561174d57506040513d601f19601f8201168201806040525081019061174a9190612be8565b60015b6117cf573d806000811461177d576040519150601f19603f3d011682016040523d82523d6000602084013e611782565b606091505b5060008151036117c7576040517f08c379a00000000000000000000000000000000000000000000000000000000081526004016117be906127bc565b60405180910390fd5b805181602001fd5b63150b7a0260e01b7bffffffffffffffffffffffffffffffffffffffffffffffffffffffff1916817bffffffffffffffffffffffffffffffffffffffffffffffffffffffff191614915050611824565b600190505b949350505050565b6000808273ffffffffffffffffffffffffffffffffffffffff163b119050919050565b604051806040016040528060008152602001606081525090565b6000604051905090565b600080fd5b600080fd5b60007fffffffff0000000000000000000000000000000000000000000000000000000082169050919050565b6118b28161187d565b81146118bd57600080fd5b50565b6000813590506118cf816118a9565b92915050565b6000602082840312156118eb576118ea611873565b5b60006118f9848285016118c0565b91505092915050565b60008115159050919050565b61191781611902565b82525050565b6000602082019050611932600083018461190e565b92915050565b600081519050919050565b600082825260208201905092915050565b60005b83811015611972578082015181840152602081019050611957565b60008484015250505050565b6000601f19601f8301169050919050565b600061199a82611938565b6119a48185611943565b93506119b4818560208601611954565b6119bd8161197e565b840191505092915050565b600060208201905081810360008301526119e2818461198f565b905092915050565b6000819050919050565b6119fd816119ea565b8114611a0857600080fd5b50565b600081359050611a1a816119f4565b92915050565b600060208284031215611a3657611a35611873565b5b6000611a4484828501611a0b565b91505092915050565b600073ffffffffffffffffffffffffffffffffffffffff82169050919050565b6000611a7882611a4d565b9050919050565b611a8881611a6d565b82525050565b6000602082019050611aa36000830184611a7f565b92915050565b611ab281611a6d565b8114611abd57600080fd5b50565b600081359050611acf81611aa9565b92915050565b60008060408385031215611aec57611aeb611873565b5b6000611afa85828601611ac0565b9250506020611b0b85828601611a0b565b9150509250929050565b600080600060608486031215611b2e57611b2d611873565b5b6000611b3c86828701611ac0565b9350506020611b4d86828701611ac0565b9250506040611b5e86828701611a0b565b9150509250925092565b600081519050919050565b600082825260208201905092915050565b6000819050602082019050919050565b611b9d816119ea565b82525050565b600082825260208201905092915050565b6000611bbf82611938565b611bc98185611ba3565b9350611bd9818560208601611954565b611be28161197e565b840191505092915050565b6000604083016000830151611c056000860182611b94565b5060208301518482036020860152611c1d8282611bb4565b9150508091505092915050565b6000611c368383611bed565b905092915050565b6000602082019050919050565b6000611c5682611b68565b611c608185611b73565b935083602082028501611c7285611b84565b8060005b85811015611cae5784840389528151611c8f8582611c2a565b9450611c9a83611c3e565b925060208a01995050600181019050611c76565b50829750879550505050505092915050565b60006020820190508181036000830152611cda8184611c4b565b905092915050565b600060208284031215611cf857611cf7611873565b5b6000611d0684828501611ac0565b91505092915050565b611d18816119ea565b82525050565b6000602082019050611d336000830184611d0f565b92915050565b611d4281611902565b8114611d4d57600080fd5b50565b600081359050611d5f81611d39565b92915050565b60008060408385031215611d7c57611d7b611873565b5b6000611d8a85828601611ac0565b9250506020611d9b85828601611d50565b9150509250929050565b600080fd5b600080fd5b7f4e487b7100000000000000000000000000000000000000000000000000000000600052604160045260246000fd5b611de78261197e565b810181811067ffffffffffffffff82111715611e0657611e05611daf565b5b80604052505050565b6000611e19611869565b9050611e258282611dde565b919050565b600067ffffffffffffffff821115611e4557611e44611daf565b5b611e4e8261197e565b9050602081019050919050565b82818337600083830152505050565b6000611e7d611e7884611e2a565b611e0f565b905082815260208101848484011115611e9957611e98611daa565b5b611ea4848285611e5b565b509392505050565b600082601f830112611ec157611ec0611da5565b5b8135611ed1848260208601611e6a565b91505092915050565b60008060008060808587031215611ef457611ef3611873565b5b6000611f0287828801611ac0565b9450506020611f1387828801611ac0565b9350506040611f2487828801611a0b565b925050606085013567ffffffffffffffff811115611f4557611f44611878565b5b611f5187828801611eac565b91505092959194509250565b600067ffffffffffffffff821115611f7857611f77611daf565b5b611f818261197e565b9050602081019050919050565b6000611fa1611f9c84611f5d565b611e0f565b905082815260208101848484011115611fbd57611fbc611daa565b5b611fc8848285611e5b565b509392505050565b600082601f830112611fe557611fe4611da5565b5b8135611ff5848260208601611f8e565b91505092915050565b6000806040838503121561201557612014611873565b5b600061202385828601611ac0565b925050602083013567ffffffffffffffff81111561204457612043611878565b5b61205085828601611fd0565b9150509250929050565b6000806040838503121561207157612070611873565b5b600061207f85828601611ac0565b925050602061209085828601611ac0565b9150509250929050565b7f4e487b7100000000000000000000000000000000000000000000000000000000600052602260045260246000fd5b600060028204905060018216806120e157607f821691505b6020821081036120f4576120f361209a565b5b50919050565b7f4552433732313a20617070726f76616c20746f2063757272656e74206f776e6560008201527f7200000000000000000000000000000000000000000000000000000000000000602082015250565b6000612156602183611943565b9150612161826120fa565b604082019050919050565b6000602082019050818103600083015261218581612149565b9050919050565b7f4552433732313a20617070726f76652063616c6c6572206973206e6f7420746f60008201527f6b656e206f776e6572206e6f7220617070726f76656420666f7220616c6c0000602082015250565b60006121e8603e83611943565b91506121f38261218c565b604082019050919050565b60006020820190508181036000830152612217816121db565b9050919050565b7f4552433732313a2063616c6c6572206973206e6f7420746f6b656e206f776e6560008201527f72206e6f7220617070726f766564000000000000000000000000000000000000602082015250565b600061227a602e83611943565b91506122858261221e565b604082019050919050565b600060208201905081810360008301526122a98161226d565b9050919050565b7f4e487b7100000000000000000000000000000000000000000000000000000000600052603260045260246000fd5b7f4e487b7100000000000000000000000000000000000000000000000000000000600052601160045260246000fd5b6000612319826119ea565b91507fffffffffffffffffffffffffffffffffffffffffffffffffffffffffffffffff820361234b5761234a6122df565b5b600182019050919050565b7f4552433732313a20696e76616c696420746f6b656e2049440000000000000000600082015250565b600061238c601883611943565b915061239782612356565b602082019050919050565b600060208201905081810360008301526123bb8161237f565b9050919050565b7f4552433732313a2061646472657373207a65726f206973206e6f74206120766160008201527f6c6964206f776e65720000000000000000000000000000000000000000000000602082015250565b600061241e602983611943565b9150612429826123c2565b604082019050919050565b6000602082019050818103600083015261244d81612411565b9050919050565b7f4f776e61626c653a206e6577206f776e657220697320746865207a65726f206160008201527f6464726573730000000000000000000000000000000000000000000000000000602082015250565b60006124b0602683611943565b91506124bb82612454565b604082019050919050565b600060208201905081810360008301526124df816124a3565b9050919050565b7f4552433732313a207472616e736665722066726f6d20696e636f72726563742060008201527f6f776e6572000000000000000000000000000000000000000000000000000000602082015250565b6000612542602583611943565b915061254d826124e6565b604082019050919050565b6000602082019050818103600083015261257181612535565b9050919050565b7f4552433732313a207472616e7366657220746f20746865207a65726f2061646460008201527f7265737300000000000000000000000000000000000000000000000000000000602082015250565b60006125d4602483611943565b91506125df82612578565b604082019050919050565b60006020820190508181036000830152612603816125c7565b9050919050565b6000612615826119ea565b9150612620836119ea565b9250828203905081811115612638576126376122df565b5b92915050565b6000612649826119ea565b9150612654836119ea565b925082820190508082111561266c5761266b6122df565b5b92915050565b7f4f776e61626c653a2063616c6c6572206973206e6f7420746865206f776e6572600082015250565b60006126a8602083611943565b91506126b382612672565b602082019050919050565b600060208201905081810360008301526126d78161269b565b9050919050565b7f4552433732313a20617070726f766520746f2063616c6c657200000000000000600082015250565b6000612714601983611943565b915061271f826126de565b602082019050919050565b6000602082019050818103600083015261274381612707565b9050919050565b7f4552433732313a207472616e7366657220746f206e6f6e20455243373231526560008201527f63656976657220696d706c656d656e7465720000000000000000000000000000602082015250565b60006127a6603283611943565b91506127b18261274a565b604082019050919050565b600060208201905081810360008301526127d581612799565b9050919050565b7f4552433732313a206d696e7420746f20746865207a65726f2061646472657373600082015250565b6000612812602083611943565b915061281d826127dc565b602082019050919050565b6000602082019050818103600083015261284181612805565b9050919050565b7f4552433732313a20746f6b656e20616c7265616479206d696e74656400000000600082015250565b600061287e601c83611943565b915061288982612848565b602082019050919050565b600060208201905081810360008301526128ad81612871565b9050919050565b60008190508160005260206000209050919050565b60006020601f8301049050919050565b600082821b905092915050565b6000600883026129167fffffffffffffffffffffffffffffffffffffffffffffffffffffffffffffffff826128d9565b61292086836128d9565b95508019841693508086168417925050509392505050565b6000819050919050565b600061295d612958612953846119ea565b612938565b6119ea565b9050919050565b6000819050919050565b61297783612942565b61298b61298382612964565b8484546128e6565b825550505050565b600090565b6129a0612993565b6129ab81848461296e565b505050565b5b818110156129cf576129c4600082612998565b6001810190506129b1565b5050565b601f821115612a14576129e5816128b4565b6129ee846128c9565b810160208510156129fd578190505b612a11612a09856128c9565b8301826129b0565b50505b505050565b600082821c905092915050565b6000612a3760001984600802612a19565b1980831691505092915050565b6000612a508383612a26565b9150826002028217905092915050565b612a6982611938565b67ffffffffffffffff811115612a8257612a81611daf565b5b612a8c82546120c9565b612a978282856129d3565b600060209050601f831160018114612aca5760008415612ab8578287015190505b612ac28582612a44565b865550612b2a565b601f198416612ad8866128b4565b60005b82811015612b0057848901518255600182019150602085019450602081019050612adb565b86831015612b1d5784890151612b19601f891682612a26565b8355505b6001600288020188555050505b505050505050565b600081519050919050565b600082825260208201905092915050565b6000612b5982612b32565b612b638185612b3d565b9350612b73818560208601611954565b612b7c8161197e565b840191505092915050565b6000608082019050612b9c6000830187611a7f565b612ba96020830186611a7f565b612bb66040830185611d0f565b8181036060830152612bc88184612b4e565b905095945050505050565b600081519050612be2816118a9565b92915050565b600060208284031215612bfe57612bfd611873565b5b6000612c0c84828501612bd3565b9150509291505056fea26469706673582212206c78db86d719d35b42bcf89309cb22ccf4f115022020e649349785c5a567acb064736f6c63430008100033",
  "immutableReferences": {},
  "source": "// SPDX-License-Identifier: MIT\r\n\r\npragma solidity ^0.8.4;\r\n\r\nimport \"@openzeppelin/contracts/token/ERC721/ERC721.sol\";\r\nimport \"@openzeppelin/contracts/utils/Counters.sol\";\r\nimport \"@openzeppelin/contracts/access/Ownable.sol\";\r\n\r\ncontract SmartContract is ERC721, Ownable {\r\n  using Counters for Counters.Counter;\r\n  using Strings for uint256;\r\n  Counters.Counter _tokenIds;\r\n  mapping(uint256 => string) _tokenURIs;\r\n\r\n  struct RenderToken {\r\n    uint256 id;\r\n    string uri;\r\n  }\r\n\r\n  constructor() ERC721(\"Smart Contract\", \"SC\") {}\r\n\r\n  function _setTokenURI(uint256 tokenId, string memory _tokenURI) internal {\r\n    _tokenURIs[tokenId] = _tokenURI;\r\n  }\r\n\r\n  function tokenURI(uint256 tokenId)\r\n    public\r\n    view\r\n    virtual\r\n    override\r\n    returns (string memory)\r\n  {\r\n    require(_exists(tokenId));\r\n    string memory _tokenURI = _tokenURIs[tokenId];\r\n    return _tokenURI;\r\n  }\r\n\r\n  function getAllTokens() public view returns (RenderToken[] memory) {\r\n    uint256 lastestId = _tokenIds.current();\r\n    uint256 counter = 0;\r\n    RenderToken[] memory res = new RenderToken[](lastestId);\r\n    for (uint256 i = 0; i < lastestId; i++) {\r\n      if (_exists(counter)) {\r\n        string memory uri = tokenURI(counter);\r\n        res[counter] = RenderToken(counter, uri);\r\n      }\r\n      counter++;\r\n    }\r\n    return res;\r\n  }\r\n\r\n  function mint(address recipient, string memory uri) public returns (uint256) {\r\n    uint256 newId = _tokenIds.current();\r\n    _mint(recipient, newId);\r\n    _setTokenURI(newId, uri);\r\n    _tokenIds.increment();\r\n    return newId;\r\n  }\r\n}",
  "sourcePath": "C:\\Users\\dell\\OneDrive\\Desktop\\nft project\\contracts\\mycontract.sol",
  "compiler": {
    "name": "solc",
    "version": "0.8.16+commit.07a7930e.Emscripten.clang"
  },
  "schemaVersion": "3.4.9",
  "updatedAt": "2022-09-08T12:38:40.030Z",
  "devdoc": {
    "kind": "dev",
    "methods": {
      "approve(address,uint256)": {
        "details": "See {IERC721-approve}."
      },
      "balanceOf(address)": {
        "details": "See {IERC721-balanceOf}."
      },
      "getApproved(uint256)": {
        "details": "See {IERC721-getApproved}."
      },
      "isApprovedForAll(address,address)": {
        "details": "See {IERC721-isApprovedForAll}."
      },
      "name()": {
        "details": "See {IERC721Metadata-name}."
      },
      "owner()": {
        "details": "Returns the address of the current owner."
      },
      "ownerOf(uint256)": {
        "details": "See {IERC721-ownerOf}."
      },
      "renounceOwnership()": {
        "details": "Leaves the contract without owner. It will not be possible to call `onlyOwner` functions anymore. Can only be called by the current owner. NOTE: Renouncing ownership will leave the contract without an owner, thereby removing any functionality that is only available to the owner."
      },
      "safeTransferFrom(address,address,uint256)": {
        "details": "See {IERC721-safeTransferFrom}."
      },
      "safeTransferFrom(address,address,uint256,bytes)": {
        "details": "See {IERC721-safeTransferFrom}."
      },
      "setApprovalForAll(address,bool)": {
        "details": "See {IERC721-setApprovalForAll}."
      },
      "supportsInterface(bytes4)": {
        "details": "See {IERC165-supportsInterface}."
      },
      "symbol()": {
        "details": "See {IERC721Metadata-symbol}."
      },
      "tokenURI(uint256)": {
        "details": "See {IERC721Metadata-tokenURI}."
      },
      "transferFrom(address,address,uint256)": {
        "details": "See {IERC721-transferFrom}."
      },
      "transferOwnership(address)": {
        "details": "Transfers ownership of the contract to a new account (`newOwner`). Can only be called by the current owner."
      }
    },
    "version": 1
  },
  "userdoc": {
    "kind": "user",
    "methods": {},
    "version": 1
  }
}